:100000000C9426100C944E100C944E100C944E1020
:100010000C944E100C944E100C944E100C944E10E8
:100020000C944E100C944E100C9412240C94A42298
:100030000C944E100C944E100C944E100C944E10C8
:100040000C944E100C94D71C0C944E100C944E1023
:100050000C944E100C944E100C944E100C94A61E42
:100060000C944E100C944E100C944E100C944E1098
:100070000C944E100C944E100C944E100C944E1088
:100080000C944A1D0C944E100C944E100C944E106F
:100090000C944E100C944E100C944E100C944E1068
:1000A0000C944E100C944E100C944E10A91FAC1FC3
:1000B0009B1F9F1FA51FCD1FCD1FCD1FB01FB41F9E
:1000C000B81FBE1FC21FCD1FC81F000E10E01010AA
:1000D0000808000000000000000000004C9C4EAC2E
:1000E000500000000000000000007CFCFEFEFFFF4E
:1000F000FCF8000003030101000000000000000004
:1001000000000000000000000000000000000000EF
:1001100000000000000000000000000000000000DF
:1001200000000000000000000000000000000000CF
:1001300000000000000000000000000000000000BF
:1001400000000000000000000000000000000000AF
:10015000000000000000000000000000000000009F
:10016000000000000000000000000000000000008F
:10017000000000000000000000000000000000007F
:10018000000000000000000000000000000000006F
:10019000000000000000000000000000000000005F
:1001A000000000000000000000000000000000004F
:1001B000000000000000000000000000000000003F
:1001C000000000000000000000000000000000002F
:1001D000000000000000000000000000000000001F
:1001E000000000000000000000000000000000000F
:1001F00000000000000000000000000000000000FF
:1002000000000000000000000000000000000000EE
:1002100000000000000000000000000000000020BE
:10022000202000202020002020300020202000203E
:1002300020200020202000000000000000000020FE
:1002400000000020002000200020000020000020EE
:10025000000000200000000000000000000000205E
:1002600000000020200000202020000020000020AE
:1002700020200020202000000000000000000020BE
:1002800000000020002000200020000020000020AE
:10029000000000000020000000000000000000201E
:1002A000202000200020002000200000200000204E
:1002B000202000202020000000000000000000009E
:1002C000000000000000000000000000000000002E
:1002D000000000000000000000000000000000001E
:1002E00000000000000000000000001115150A00C9
:1002F0001F11110E000000000000000000000000AF
:1003000000000000000000000000000000000000ED
:1003100000000000000000000000000000000000DD
:1003200000000000000000000000000000000000CD
:1003300000000000000000000000000000000000BD
:1003400000000000000000000000000000000000AD
:10035000000000000000000000000000000000009D
:10036000000000000000000000000000000000008D
:10037000000000000000000000000000000000007D
:10038000000000000000000000000000000000006D
:10039000000000000000000000000000000000005D
:1003A000000000000000000000000000000000004D
:1003B000000000000000000000000000000000003D
:1003C000000000000000000000000000000000002D
:1003D000000000000000000000000000000000001D
:1003E000000000000000000000000000000000000D
:1003F000000000000000000000002A2A54493833A1
:100400002A2A1A0A00437261746573203344204C0F
:100410006576656C205365740000000000000000E4
:10042000000000000000000000000000000000715B
:10043000140B006214064333445354440000621406
:1004400060144333445374616E646172640010003D
:10045000150001151F009100009100F09101059118
:10046000001B010000000191001A010100010101BF
:1004700091001A0100000191001C0101000101918D
:10048000001C0100000191000C910111000091017C
:100490000D91000C91FF0691001A91FF0691000E3C
:1004A0001500010805049100A2910207910019911D
:1004B00002079100190202060606020291001902C3
:1004C000020E1E0E0202910019910207910005040E
:1004D0000408080891000F9102079100050400002C
:1004E0000008910012029100080400000008910029
:1004F000120291000804000000089100120291000D
:10050000049102080E91080591000D029100040269
:1005100091000C0891000D029100040291000C045E
:1005200091000D029100040291000C0491000D91C4
:10053000020691000C0291001F0291001F01910020
:100540001F019100089101040202910104020204BA
:100550000402029101089100481700040D0503915F
:1005600000009100A59108050E020E91080410915B
:10057000080C9100100891000E08910010089100DD
:100580000E089100100891000E089100100808183C
:10059000080891000A089100100891000E089100C7
:1005A0001F0891001F0891001F0891001F080000FC
:1005B000910805189108040E020E08080818910801
:1005C000043818910806F80000150001081F03916F
:1005D000080A189108080F010F91080B91001201E9
:1005E000010191000908089100120101019100091F
:1005F000080891001201010191000908080000009B
:100600000191000E0103019100090808000000019A
:1006100091000E01010191000908080000000191FC
:10062000000E01010191000908080000000391007B
:100630000E01010191000908080000000191000F5E
:100640000191000A08080000000191000F019100CB
:100650000B080000000191000F0191000B08000041
:10066000000191000F0191000B08000000019100B2
:100670000F0191000B0800000F090F91000D0F09E9
:100680000F91000A0800000F090F91000D0F090FCC
:1006900091000A0808080F090F91080D0F090F9122
:1006A000080A0000000F090F91000D0F090F9100BB
:1006B00009080000000F090F91000D0F090F9100AC
:1006C00009089100040191000E0F090F910009081B
:1006D0009100040191000E0F090F9100090491008F
:1006E000040191000A910F0509910F05910005047D
:1006F00091010F91090B9101050791000F910F0BCB
:10070000910026170001011C0291081091000B04B2
:10071000040400000891000E0891000B91040508E4
:1007200091000E0891000B04040400040891000ECF
:100730001891000F040891000E0891000F04089111
:10074000000E7891000F040891000E4091000F04F4
:100750000891000E4091000F040891000E40910096
:100760000F041091000E4091000F041091000E40F4
:1007700091000F041091000E4091000F04109100A1
:100780000E4091000F07102060203C9104040701E7
:10079000C744CC444444C444C7010791040807013A
:1007A0001091000410910009409100101091000474
:1007B000109100094091001010910004109100095F
:1007C0004091001010910004109100094091001018
:1007D0009110069100094091001FC091001F4091A7
:1007E000001F2091001F109100100101020204045B
:1007F00008180818081E02020E08910010170003BE
:100800000000020791041E0791001F0491001B4085
:10081000000000040791040591080691100691203C
:100820000640C040400000000404000004910005A0
:10083000089100051091000520910005400000007E
:1008400004040000049100050891000510910005C2
:100850002091000540000000040400000C00000886
:100860000000089100051091000520910005C000CE
:100870000000040400000400009108060000003895
:1008800091000520910005400000000404000004D0
:10089000000008000800089100045C910005209108
:1008A0000005C0000000040400000400000800006F
:1008B0000008910004869100052091000540000089
:1008C00000040400000C000008000000089100046F
:1008D000B291000520910005C00000000404000052
:1008E0000400000800080008910004929100042010
:1008F0002020910004400000000404000004009146
:10090000080518910004B2910004202020910004F1
:10091000C0000000040400000491000408000891D5
:1009200000049E9100046060209100047F0000009C
:10093000040400000C910004089100064C9100048E
:100940002060609100040100000004040000079191
:1009500000040891000638910004606020910004B2
:100960007F000000040400000191000408089100C9
:100970000510910004202020910004400000000494
:10098000040000070000000808089100051091000D
:100990000420202091000440000000040400000412
:1009A0009100050891000510910005209100054077
:1009B00000000004040000049100050891000510E7
:1009C00091000520910005C00000009104070091EE
:1009D000080500911005009120050040C0C0C040EE
:1009E00000040400040404000000080808000000DB
:1009F00010101000000020202000000040C0400027
:100A00000004040000049100050891000510910005
:100A100005209100054000000004070407010704B9
:100A20000404070107040404070107040404070180
:100A3000070404040701070404071205010F01035A
:100A400091002591401A91000640910018209100D4
:100A5000064091001820910006C0910018209100D6
:100A6000064091001820910006C0910018109100D6
:100A7000064091001810910006C0910018109100D6
:100A8000064091001810910006C0910018089100CE
:100A9000064091001808910006789100180891000E
:100AA00006089100180800009141047991410491D1
:100AB000001404000049917E0749910014040000CD
:100AC000497E9140057E49910014040000497E91C1
:100AD00040057E49910014070000494E48480144F2
:100AE000484E49910014010000497E404043404077
:100AF0007E49910014010000497E40404340407E01
:100B000049910014010000497E7E7E797E7E7EC977
:100B10004828180804123111119115080505010122
:100B2000000091410991010691000E0191002116EA
:100B300001020A1103910006913E0991000A020088
:100B400000000200000002022222223A912A072E0F
:100B50000808080E91020A060200000200100000B8
:100B60003E2820606062202A3E00000004910006BA
:100B70000291000702001000003E2A226A6A6A20E1
:100B80002A3E00000004910006020000000200005E
:100B90000002001000003E222028202860683E004D
:100BA00000000491000602000000020000000200A4
:100BB0000808082E6A6A2A622A6A6A3A910204912F
:100BC00000059102070000069100043E7E7E7E3EF5
:100BD0007E3E3E3E91000E020000000E9100170284
:100BE0000000000200000002910013020000000259
:100BF000000000020000000291001291020A0000B1
:100C0000000291000F0E0000000200000002000030
:100C100000020000000202060602020206060202AC
:100C20000291000402000000020000000200000027
:100C30000200000002020404020102910404029175
:100C40000004020000000200000002000000020098
:100C50000000910206040402040402000000910254
:100C60000600910208000006910205040402020633
:100C7000029100040200000002000000029100073F
:100C80000604020404910205040691000402000017
:100C90000002000000020000000200000006040242
:100CA000040402020404020406910004020000008D
:100CB0000291000702000000020204040202020482
:100CC0000402020200000002020091020C00000275
:100CD00002040402040491020591000402000000D1
:100CE00002000000020000000200000002020602F2
:100CF0000204040204040202910004020000000243
:100D000000000002000000020000000204040202D1
:100D1000060202040402029100040291000702008C
:100D20000000020000000204040204049102040115
:100D30000200000091020F000091020406069102D9
:100D40000691000402000000020000000200000002
:100D50000291002217000104040591000B0101011A
:100D60000200040404020202910108000000910440
:100D70000700000001000002000491000791030633
:100D8000000000910407000000010000020004912F
:100D90000007910706000000040418181804040056
:100DA0000000010000020091040701911F060000ED
:100DB000000404182018040400000001000002913F
:100DC000000801009102050000000404181818042E
:100DD000040000000100000291000801000E9102D1
:100DE0000400000091040A010C9104050C040000A9
:100DF00000010091020500000091040700000001BD
:100E000091000B0100020206020291000D03910005
:100E10000B0100020206020291000D01010103070D
:100E200091010800000202029100100800000891E0
:100E3000000A02910004040491080591000691083B
:100E40000491000A02910004049100050891000633
:100E500091080491000A02910004040000000101BD
:100E60000F9101050000080891000791020591000B
:100E7000040400000001010F910105000018089111
:100E800000070E9100080200000001011F910105FA
:100E90000000080891000708910008020000000106
:100EA000010F910105000008089100070891000852
:100EB0000100000001010F910105000008189100D8
:100EC0000708910008010000000101010F910104D1
:100ED00000000808910004080000089100080100C3
:100EE0000000910104910F04910809000091080489
:100EF0009100050100000091010891000508000023
:100F00000800000800000891000501910006019109
:100F10000009180000080000080000089100050101
:100F20009100060191000908000008000018000067
:100F3000089100059101110F08080F01030F02022B
:100F40000E910005160101111B02910011300C02D7
:100F500001010202040408081010202091000591EC
:100F60000804910008300C0291000B912006282003
:100F70002028910008300C0291000B2020910004E1
:100F800008000028910008301C0291000B202091DD
:100F9000000408000028910008300C0291000B208A
:100FA0002091000408000038910008300C029100E4
:100FB000060206000000602091000408000008916D
:100FC0000008300C029100061E91000420209100C0
:100FD0000408000008910008300C029100061091EE
:100FE00000042020000000080800000891000830DC
:100FF0000C02910006309100042020602020280877
:101000000808280808080C043C2020300C02910035
:1010100006109100042091000820910008300C0275
:10102000910006109100043C9100082091000830C6
:101030000C020000000404041C0404040C049100CD
:101040000820910008300C02910006109100043C29
:1010500091000820910008300C02910006109100C8
:10106000042091000860910008F00C029100063005
:1010700091000420009101050F0F3F03910007F03C
:101080000C02910006109100042000910104050F4C
:10109000070703910007300C029100061E9100041F
:1010A00020009101073F03910007300C02910006D8
:1010B000020600000060009101073F039100073025
:1010C0000C0291000B20009101077F039100073073
:1010D0003C0291000B20009101073F039100073073
:1010E0000C0E91000B200001050D050D05071F03D7
:1010F000910007303C0691000B20009101073F034F
:10110000910007300C0291000B20910011300C026D
:101110000101020204040808101020201101070236
:10112000110491010A0000000F08102091400650A0
:101130005030101010181C040103010201010102BB
:10114000910106000000914005C050509110041814
:101150001C049101050291010603070000001C9187
:10116000040E910108020100000007910016910190
:101170000600000007910012010191000B17910079
:101180001203070F1F071F071F3F1F1F3F1F1F3F90
:101190001F0F07030191000C91010E000091010443
:1011A00091001C0191001F0191001F0191001F037C
:1011B000070107070701070707010707070107914D
:1011C00000121F0000001F0000001F0000001F038E
:1011D0009100120F0000000F0000000F0000000F30
:1011E0000391001207000000070000000700000044
:1011F000070391001201000000010000000100003F
:101200000001910013010000000100000001000036
:10121000000100014141FF7941415F1D111117910A
:10122000050491010F000100007F7F00001F1F00D7
:10123000000707000001010001000000010000009C
:101240000100000001000191000F0191000F0191C8
:10125000000F0191000F91011191004F1710061519
:101260001D0692524A91010A07910406070107914F
:10127000040994FF480000000191000E1891000934
:1012800002A424280000000191000E189100090218
:101290008191010691000E189100090280910005CC
:1012A00001910008910806D8910009028091000E72
:1012B000089100055891000902400891000D08911D
:1012C00000051891000902409108071891080C18B0
:1012D0009100090640089100131891000902400886
:1012E0009100131891000902400891001318910011
:1012F000090240089100131891000902400891006A
:101300001318009108050000000278087891600C1D
:10131000E060E06078080878282828080800000EB7
:101320000291000460000060000060000060910015
:101330000791080700000E910005600000600000A2
:10134000600000609100100E0691000460000060D3
:101350000000600000609100110291000491200BD8
:10136000602091000E0291000460000060000060A7
:1013700000006000002091000E0291000460000057
:101380006000006000006000002091000E029100EB
:101390000460000060000060000060000020910018
:1013A0000706910E0602910004E00000E00000E054
:1013B0000000E000002091000706389170040C0244
:1013C00091000460000060000060000060000020E8
:1013D00091000706389118041C0291000460000077
:1013E0006000006000006000002091000791060787
:1013F000021601030204039100440E0202030101DC
:10140000030202030103910204060206020691028E
:10141000049100110891000D029100110891000D36
:10142000029100111891000D029100110491000D1C
:10143000029100110491000D029100110C91000D18
:10144000029100110291000D029100110291000D14
:101450000291001102910004020E0804040491029A
:1014600004910006910805910006029100040E9176
:10147000000F080000000891000602910004089186
:10148000000F080000000891000602910004089176
:10149000000F08000000080F010F0808080A1A0AC8
:1014A0000A0B090391020891000608080838202059
:1014B000E0200000000200020000089100070291F5
:1014C000000D2091000402020200000891000702B2
:1014D0009100049104070000209100090891000781
:1014E00002910004910407000020910009380808C7
:1014F000040404020602910004040C041C04040405
:101500000000609100090808910006029100049112
:1015100004070000209100160404040C0404043C99
:101520002020910016910407910019160102030171
:101530000591002491100791001991100791000A5C
:10154000101091000A3E02021E1050B0509110047B
:101550003010103010101F015F10101030101030BC
:1015600010101091000491100791000A10109100C2
:10157000080891000491100791000A1010910008CA
:101580000891001F0891001F0891001F0C9100078F
:1015900001910005019100110E9100069101099140
:1015A0000006910106070000000F9100070191005D
:1015B0000501910007050D05050D01910704019135
:1015C0000007019100050191000791010607000045
:1015D00000019100070191000503910007910106A8
:1015E000070000000191000701910005019100072B
:1015F000910106070000000191000701910005011B
:101600009100079101060700000001009102060504
:10161000910205010107080800000091010607007A
:10162000000001000291000501910009080000007E
:1016300091010607000000010002910005019100E0
:1016400009080000009101060791010400029100C1
:101650000501000091010708000000910106070044
:101660000000010002910005010000019100050148
:10167000080000009101061F91000502910005017C
:101680000000910105000108000000910505070711
:101690009100050291010691000601000108000079
:1016A0000091010607910011010305090F91010442
:1016B00091000A100206101F0191001902910014F6
:1016C0000206060A1A2262918205808080824020EA
:1016D0009100189102060E109100190200000002FC
:1016E00091001B030000000200029100190100009C
:1016F00091020491001901910005039100190191D3
:10170000000503910019019100050F0000409100B0
:1017100005209100054091000540910004019100D1
:1017200005070040C091400520914005C09140064A
:101730009100040302020200000300004091000532
:1017400020910005409100054091000491020400A1
:101750000001000040910005209100054091000526
:101760004091000491020400000100004091000536
:101770002091000540910005409100049102040071
:1017800000010000409100052091000540910005F6
:101790004091000491020400000100004091000506
:1017A0002091000540910005409100049102040041
:1017B0000001009120076091200800202060912006
:1017C000043E06063E10101E0000409100052091C8
:1017D00000054091000540910004910204000010B2
:1017E00000004091000520910005409100054091C6
:1017F00000049102040000100000409100052091B7
:101800000005409100054091000491020400001081
:101810000000409100052091000540910005409195
:101820000004910204000010000040910005209186
:101830000005409100054091000491020400001051
:101840000040C091400520914005C09140069100A4
:101850000491020406081000004091000520910048
:10186000054091000540910004910204000000141D
:1018700009011405049100009100009100419101BB
:101880000991001791010991001701010F011F0132
:101890000701019100179101099100179101099128
:1018A000003698B7B7B7F0F89C8E8783878E9CF880
:1018B000F00000FEFF0303030303070EFCF8000023
:1018C000FEFF0303030303070EFCF80000FFFF0005
:1018D000000000000000FFFF0000FEFF8383838301
:1018E00083C7EE7C380000F8FC0E07030303070EE5
:1018F000FCF800003F7FE0C08080C0E07F3FFFFF3A
:1019000001010101010101FFFF0000FFFF0C0C0CB0
:101910000C1C3E77E3C100007FFFC0C0C0C0C0E028
:10192000703F1F00001F3F70E0C0C0C0E0703F1F4D
:1019300000007FFFC1C1C1C1C1E3773E1C00001F91
:101940003F70E0C0C0C0E0703F1F00000000000119
:10195000FFFF0100000000000000003E5B4F5B3E07
:101960003E6B4F6B3E1C3E7C3E1C183C7E3C181C64
:10197000577D571C1C5E7F5E1C00183C1800FFE75B
:10198000C3E7FF0018241800FFE7DBE7FF30483A01
:10199000060E2629792926407F050507407F052563
:1019A0003F5A3CE73C5A7F3E1C1C08081C1C3E7FEB
:1019B00014227F22145F5F005F5F06097F017F00B2
:1019C0006689956A606060606094A2FFA2940804D2
:1019D0007E040810207E201008082A1C08081C2AF3
:1019E00008081E101010100C1E0C1E0C30383E384B
:1019F00030060E3E0E06000000000000005F0000F2
:101A00000007000700147F147F14242A7F2A122362
:101A10001308646236495620500008070300001C72
:101A20002241000041221C002A1C7F1C2A08083E7B
:101A3000080800807030000808080808000060608E
:101A40000020100804023E5149453E00427F4000FC
:101A500072494949462141494D331814127F1027D4
:101A6000454545393C4A4949314121110907364923
:101A7000494936464949291E0000140000004034F7
:101A800000000008142241141414141400412214FC
:101A90000802015909063E415D594E7C1211127C23
:101AA0007F494949363E414141227F4141413E7F84
:101AB000494949417F090909013E414151737F0864
:101AC00008087F00417F41002040413F017F08140A
:101AD00022417F404040407F021C027F7F0408106B
:101AE0007F3E4141413E7F090909063E4151215E49
:101AF0007F09192946264949493203017F01033FDD
:101B00004040403F1F2040201F3F4038403F63146B
:101B100008146303047804036159494D43007F416D
:101B200041410204081020004141417F04020102AA
:101B300004404040404000030708002054547840CF
:101B40007F284444383844444428384444287F3863
:101B50005454541800087E090218A4A49C787F08E5
:101B600004047800447D40002040403D007F102860
:101B7000440000417F40007C047804787C08040421
:101B8000783844444438FC1824241818242418FCB9
:101B90007C08040408485454542404043F44243C5E
:101BA0004040207C1C2040201C3C4030403C4428CD
:101BB0001028444C9090907C4464544C4400083667
:101BC00041000000770000004136080002010204D5
:101BD000023C2623263C1EA1A161123A4040207AF5
:101BE000385454555921555579412154547841213F
:101BF0005554784020545579400C1E527212395574
:101C00005555593954545459395554545800004570
:101C10007C410002457D420001457C40F029242999
:101C2000F0F0282528F07C545545002054547C546D
:101C30007C0A097F493249494932324848483232A0
:101C40004A4848303A4141217A3A42402078009D42
:101C5000A0A07D39444444393D4040403D3C24FFF0
:101C60002424487E4943662B2FFC2F2BFF0929F69D
:101C700020C0887E090320545479410000447D41EE
:101C80003048484A32384040227A007A0A0A727D47
:101C90000D19317D2629292F282629292926304862
:101CA0004D4020380808080808080808382F10C8D0
:101CB000ACBA2F102834FA00007B000008142A1454
:101CC0002222142A14089500220095AA005500AA81
:101CD000AA55AA55AA000000FF00101010FF00141A
:101CE0001414FF001010FF00FF1010F010F0141477
:101CF00014FC001414F700FF0000FF00FF1414F49C
:101D000004FC141417101F10101F101F1414141F9C
:101D100000101010F0000000001F101010101F1015
:101D2000101010F010000000FF1010101010101014
:101D30001010FF10000000FF140000FF00FF000063
:101D40001F10170000FC04F414141710171414F4D7
:101D500004F40000FF00F714141414141414F70012
:101D6000F7141414171410101F101F141414F41463
:101D70001010F010F000001F101F0000001F1400D2
:101D80000000FC140000F010F01010FF10FF1414FD
:101D900014FF141010101F00000000F010FFFFFFD0
:101DA000FFFFF0F0F0F0F0FFFFFF0000000000FF89
:101DB000FF0F0F0F0F0F38444438447C2A2A3E147B
:101DC0007E02020606027E027E02635549416338A6
:101DD00044443C04407E201E2006027E020299A557
:101DE000E7A5991C2A492A1C4C7201724C304A4DB5
:101DF0004D303048784830BC625A463D3E494949EA
:101E0000007E0101017E2A2A2A2A2A44445F444492
:101E100040514A444040444A51400000FF0103E021
:101E200080FF000008086B6B083612362436060F58
:101E3000090F06000018180000001010003040FFC5
:101E40000101001F01011E00191D1712003C3C3C3E
:101E50003C000000000006011501260137014A017F
:101E60005D01720188019F01B801D201EE010B02F0
:101E70002A024B026E029302BA02E40210033F03ED
:101E80007003A403DC03170455049704DD0427053D
:101E90007505C80520067D06E0064907B8072D0828
:101EA000A9082D09B9094D0AEA0A900B400CFA0C51
:101EB000C00D910E6F0F5A1053115B1272139A14CA
:101EC000D41520178018F519801B231DDE1EB420A1
:101ED000A622B524E4263429A72B402E0031EA336C
:101EE0000037453ABC3D68414C456B49C84D685286
:101EF0004F57805C006210111213151617181A1C28
:101F00001D1F21232527292C2E3134373A3E4145E8
:101F1000494E52575C62686E757B838B939CA5AF6C
:101F2000B9C4D0DCE9F70301D5F08D14A1C881CF85
:101F3000D9F1AF20000902050208020A02120213B9
:101F400002040106010C01000000000200090F005C
:101F500000030401000C000000000000000000006D
:101F60000000000000000004080201104080401042
:101F700020408040800802040180402010020110AF
:101F800080102040402004040404040304050202DD
:101F90000202040302020202060606060606040402
:101FA000020202040400000000250028002B002E7D
:101FB00000310000000000240027002A002D00301E
:101FC0000012010002EF02014041233680000101AE
:101FD000020301120100020000004041233680008C
:101FE000010102030141726475696E6F204C4C431C
:101FF0000041726475696E6F204C656F6E6172642A
:102000006F0004030904080B000202020100090426
:102010000000010202000005240010010524010156
:1020200001042402060524060001070581031000AF
:102030004009040100020A000000070502024000F6
:1020400000070583024000009917892511241FBE4F
:10205000CFEFDAE0DEBFCDBF11E0A0E0B1E0E0ED10
:10206000FDE402C005900D92A838B107D9F729E028
:10207000A8E8B1E001C01D92A234B207E1F710E276
:10208000CCE4D0E204C02297FE010E94B826C834F6
:10209000D107C9F70E9468200C94E6260C94000032
:1020A0000C94D0260C94D8260F931F93CF93DF93D4
:1020B00006E911E0C6E9D0E0CE010E945010F80117
:1020C00081938F012196C639F3E0DF07A9F786E9EE
:1020D00093E00E9450108093950187E993E00E945D
:1020E00050108093940188E993E00E9450108093EF
:1020F000930189E993E00E945010809392018AE94C
:1021000093E00E945010809391018BE993E00E942C
:10211000501080939001DF91CF911F910F910895FE
:10212000AF92BF92CF92EF920F93CF93DF93EC01D8
:102130005B01C12C9AE0E92E08E02AEE30E0AB0109
:10214000BE0186E994E00E94FE17CC24C3942AEDD8
:1021500030E0A501BE0186E994E00E94FE17DF9100
:10216000CF910F91EF90CF90BF90AF900895AF9225
:10217000BF92CF92EF920F93CF93DF93EC015B016D
:10218000C12C3AE0E32E08E02AEE30E0AB01BC01BE
:1021900086E994E00E94FE17CC24C3942AEC30E038
:1021A000A501BE0186E994E00E94FE17DF91CF9160
:1021B0000F91EF90CF90BF90AF9008952F923F92E4
:1021C0004F925F926F927F928F929F92AF92BF9247
:1021D000CF92DF92EF92FF920F931F93CF93DF93F3
:1021E000CDB7DEB76E970FB6F894DEBF0FBECDBF8A
:1021F0003C017A8B698B5C8B4B8B290161E086E912
:1022000094E00E94EE17430121E1820E911C93019C
:10221000215131093C832B8328ED3FEF3E832D83F1
:1022200020E530E0388B2F879301205131093A8F18
:10223000298F205E3F4F3C8F2B8F89899A89861981
:1022400097099A878987298D3A8D3A8329832B8C20
:102250003C8C2D813E813C872B8718861F822985E7
:102260003A858B819C81280F391F3E8B2D8B2985C8
:102270003A85280D391D388F2F8B4114510449F4AC
:102280002B813C813E8F2D8F09851A85020D131DF0
:1022900020C031E04316510429F43E8E2D8E0F8963
:1022A000188D17C082E04816510449F49E8E8D8E19
:1022B00009851A8529813A81020F131F0AC033E06C
:1022C0004316510431F429813A813E8F2D8F0D89B7
:1022D0001E898D8D9E8D8032910580F40831110507
:1022E00068F4F80155E0EE0FFF1F5A95E1F7E80F8B
:1022F000F91FEA56FE4FE080F12C02C0E12CF12CD0
:102300002F8138858F859889280F391F3E872D8723
:10231000AB84BC84C12CD12CE0FE05C0B5018D85F9
:102320009E850E9490108091910190E0ED8DFE8D30
:10233000E817F90789F48091920190E008171907CE
:1023400059F48091900190E0C816D90629F4B5019E
:102350008D859E850E94B7102D8D3E8D26153705E3
:1023600079F489899A890817190751F4EB89FC894E
:10237000CE16DF0629F4B5018D859E850E94B71023
:10238000F7FE03C0FFEFEF1AFF0AF594E79425E08C
:10239000A21AB1083FEFC31AD30A89E0C816D104C4
:1023A00009F0BACF2F8138852E5F3F4F38872F83B2
:1023B0002B853C852D5F3F4F3C872B8729813A81B8
:1023C0002F5F3F4F3A83298331E0231A31082F8151
:1023D00038852434310509F050CF2F8538892450B1
:1023E0003109388B2F8731E0831A91082B813C818A
:1023F0002F5F3F4F3C832B832D813E812E5F3F4FCC
:102400003E832D832E31310509F01DCF80910401CB
:102410008A3060F420E3280FCC24C394EE24E394A4
:1024200000E040E050E060E070E01EC01AE0612F84
:102430000E944126805DCC24C394EE24E39400E006
:10244000282F40E050E060E070E086E994E00E94D0
:10245000BE1980910401612F0E944126905D292FB1
:1024600040E050E066E070E086E994E00E94BE192A
:1024700086E994E06E960FB6F894DEBF0FBECDBF2E
:10248000DF91CF911F910F91FF90EF90DF90CF9050
:10249000BF90AF909F908F907F906F905F904F9084
:1024A0003F902F900C94DA1AAF92BF92CF92DF92A6
:1024B000EF92FF920F931F93CF93DF937C01E2E49F
:1024C000F4E0E491C9E4D0E0EE2331F0FE01E650FF
:1024D000FC4FE4912196F8CF2296E114F10411F417
:1024E0000E94541010920401609194018091950112
:1024F00040919301B090920170919101509190019F
:1025000090E0292F30E02E153F0509F44FC0FE0161
:10251000E650FC4F6491FE01E550FC4F8491FE01B2
:10252000E450FC4F4491FE01E350FC4FB490FE0197
:10253000E250FC4F7491FE01E150FC4F5491DE01DA
:10254000169620E030E0FD01E650FC4FE491ED01ED
:10255000219689010A561E4F2F5F3F4FE13919F02E
:10256000D801EC931BC0FE01E650FC4FA490FE0185
:10257000E550FC4FC490ED012396F801A082CA9467
:10258000A0E0B0E0D12CAC15BD0534F4F801EA0FA1
:10259000FB1FA1821196F7CF2C0D3D1D2115F3E0F5
:1025A0003F0711F0DE01CFCF9F5FABCF6093940167
:1025B0008093950140939301B092920170939101A1
:1025C000509390019093040190E090938F01809339
:1025D0008E0170E070938D0160938C0150E05093F8
:1025E0008B0140938A0122E030E0309389012093EF
:1025F0008801DF91CF911F910F91FF90EF90DF90B5
:10260000CF90BF90AF900C94DE1060E186E994E02B
:102610000E94DD1A811122C060E486E994E00E94E4
:10262000DD1A81111EC060E286E994E00E94DD1A85
:1026300081111AC064E086E994E00E94DD1A8111DC
:1026400016C062E086E994E00E94DD1A882319F042
:1026500085E090E0089580E090E0089581E090E0CA
:10266000089583E090E0089582E090E0089584E08A
:1026700090E0089580329105D0F468317105B8F486
:1026800048305105A0F4FB0165E0EE0FFF1F6A958D
:10269000E1F7E80FF91FEA56FE4F808190E002C093
:1026A000959587954A95E2F781709927089580E07E
:1026B00090E00895CF92DF92EF92FF920F931F93D5
:1026C000CF93DF93EC018B017A01415051090E94B5
:1026D0003A136C01009739F0A701B801CE010E94AE
:1026E0003A13892BF9F0A701B801CE010E943A13E1
:1026F000009761F0A7014F5F5F4FB801CE010E94C4
:102700003A13892B31F080E090E01EC0CD2869F0AB
:102710001BC080918A0190918B01019690938B014F
:1027200080938A0181E090E00FC0A70142505109D7
:10273000B801CE010E943A13009731F080918A01CE
:1027400090918B010197EACFDF91CF911F910F916B
:10275000FF90EF90DF90CF9008958F929F92AF926D
:10276000BF92CF92DF92EF92FF920F931F93CF937E
:10277000DF93FB017A01590175E0EE0FFF1F7A9597
:10278000E1F7E80FF91F81E090E0042E01C0880F07
:102790000A94EAF7EA56FE4F282F2095908192235B
:1027A0009083E801E5E0CC0FDD1FEA95E1F7CA0D63
:1027B000DB1DCA56DE4F9881982B9883882483941A
:1027C000912CF7FC35C0670181E0C81AD108A60139
:1027D000B801C5010E943A13892B51F52091880157
:1027E0003091890140918A0150918B0160918C0157
:1027F00070918D0180918E0190918F010E94DE1069
:10280000C40102C0880F991FEA94E2F77C01E094AA
:102810008881E8229FEFC916D90639F0C4010C2C33
:1028200001C0880F0A94EAF7E82AE8827601C9CF46
:10283000DF91CF911F910F91FF90EF90DF90CF909C
:10284000BF90AF909F908F900895AF92BF92CF921C
:10285000DF92EF92FF920F931F93CF93DF93009736
:1028600009F041C061E086E994E00E94DD1AE09041
:102870008A01F0908B01C0908C01D0908D01C091A5
:102880008E01D0918F01882309F4FBC056018FEF90
:10289000A81AB80AA701B501CE010E943A13892BE4
:1028A00009F4EFC086010E5F1F4FA701B801CE01EA
:1028B0000E943A13892B09F0E4C0A7014150510945
:1028C000B501CE010E943A13892B09F4DAC086E1E2
:1028D000C816D1040CF0D5C09E01A701B501CE01E8
:1028E0000E94AD13D7C08130910509F042C061E06C
:1028F00086E994E00E94DD1AE0908A01F0908B0155
:10290000C0918C01D0918D0100918E0110918F01A9
:10291000882309F4C9C068018FEFC81AD80AA70133
:10292000BE01C6010E943A13892B09F4BDC05801AB
:1029300082E0A80EB11CA701BE01C5010E943A1396
:10294000892B09F0B1C0A70141505109BE01C60150
:102950000E943A13892B09F4A7C00E3111050CF01F
:10296000A3C08E019501A701BE01C6010E94AD134F
:10297000A3C08230910509F041C061E086E994E08E
:102980000E94DD1AE0908A01F0908B01C0908C01CA
:10299000D0908D01C0918E01D0918F01882309F4D0
:1029A00091C0560181E0A81AB108A701B501CE0176
:1029B0000E943A13892B09F485C08601025011093F
:1029C000A701B801CE010E943A13892B09F07AC001
:1029D000A70141505109B501CE010E943A13892B3C
:1029E00009F470C082E0C816D1040CF46BC09E01DB
:1029F000A701B501CE010E94AD136DC0039709F088
:102A000081C061E086E994E00E94DD1AE0908A01CD
:102A1000F0908B01C0918C01D0918D0100918E01BD
:102A200010918F01882309F45CC0680181E0C81A05
:102A3000D108A701BE01C6010E943A13892B09F4EF
:102A400050C0580182E0A81AB108A701BE01C50113
:102A50000E943A13892B09F044C0A7014150510943
:102A6000BE01C6010E943A13892BD9F1023011052B
:102A7000C4F18E019501A701BE01C6010E94AD13EC
:102A800038C0B6016F5F7F4FA701CE010E945A1375
:102A9000892BC1F180918C0190918D0101969093C9
:102AA0008D0180938C012EC0A701BE01C801019643
:102AB0000E945A13892B31F180918E0190918F01E0
:102AC00001961CC0B60161507109A701CE010E9498
:102AD0005A13892BB9F080918C0190918D01019747
:102AE000DECFA701BE01C80101970E945A13892BAE
:102AF00049F080918E0190918F01019790938F0101
:102B000080938E01DF91CF911F910F91FF90EF90F5
:102B1000DF90CF90BF90AF9008958F929F92AF9229
:102B2000BF92CF92EF920F93CF93DF93EC014B01C3
:102B30005A01F50121915F01222369F0CC24C3944D
:102B4000EE24E39400E0A401BE0186E994E00E9433
:102B5000BE192696EECFDF91CF910F91EF90CF90D7
:102B6000BF90AF909F908F9008950F931F93CF9336
:102B7000DF9348E151E068E070E080E090E00E947F
:102B80008D1586E994E00E94DA1A06E911E0C6E99B
:102B9000D0E0F80161918F01CE010E945210219680
:102BA000C639F3E0DF07A9F760918E0186E993E06B
:102BB0000E94521060918C0187E993E00E945210AC
:102BC00060918A0188E993E00E945210609192011D
:102BD00089E993E00E945210609191018AE993E0A3
:102BE0000E945210609190018BE993E00E94521074
:102BF00046E251E068E070E080E090E00E948D15D0
:102C000086E994E00E94DA1A809188019091890106
:102C1000019797FF02C083E090E090938901809331
:102C2000880168EE73E080E090E0DF91CF911F9122
:102C30000F910C94131FCF92EF920F93CF9384E6D2
:102C400080939001EAEFF0E0A6E9B1E084918D93E2
:102C5000319683E0EA3FF807C9F722E030E044E12B
:102C600050E067E070E08FE090E00E94DE10CAE084
:102C700061E086E994E00E94EF1A882309F48DC090
:102C800048E351E060E070E080E090E00E948D1544
:102C9000809104018A3088F420E3280FCC24C39467
:102CA000EE24E39400E040E050E06AE270E086E960
:102CB00094E00E94BE1920E219C06C2F0E944126A8
:102CC000805DCC24C394EE24E39400E0282F40E000
:102CD00050E06AE270E086E994E00E94BE198091BB
:102CE00004016C2F0E944126905D292F40E050E0A6
:102CF00060E370E086E994E00E94BE1941E451E08F
:102D000068E070E082E090E00E948D154DE451E0B3
:102D100060E170E082E090E00E948D1546E551E0B0
:102D200068E170E082E090E00E948D1586E994E011
:102D30000E94DA1A60E286E994E00E94DD1A8111AD
:102D400008C064E086E994E00E94DD1A811110C099
:102D50001DC0809104018823A1F381508093040158
:102D600060E286E994E00E94DD1A8111F9CFE9CF93
:102D700080910401803150F48F5F8093040164E0FE
:102D800086E994E00E94DD1A8111F9CF62E370E0D8
:102D900080E090E00E94131F6BCFCF910F91EF90D6
:102DA000CF900895EF92FF920F931F93CF93DF93ED
:102DB00001E010E0A4E0EA2EF12C8091040190E003
:102DC0000E94541260918C0170918D01E0919201EA
:102DD000F0E0209188013091890140918A01509161
:102DE0008B0180918E0190918F016E177F0709F4FE
:102DF00067C00E94DE100E940513EC01209761F469
:102E00006AE070E080E090E00E94131F0E940513CA
:102E1000EC0101E010E0F2CF62E086E994E00E946C
:102E2000DD1A882339F061E086E994E00E94DD1A1A
:102E3000811174C0012B31F064E670E080E090E015
:102E40000E94131F9E0121503109809188019091A9
:102E500089012430310540F4820F931FB7010E948D
:102E600061260E94251429C0259739F501968430E2
:102E7000910529F4109289011092880104C0909361
:102E8000890180938801C3ECD0E062E086E994E098
:102E90000E94DD1A882389F06AE070E080E090E00B
:102EA0000E94131F219789F780E090E0DF91CF9176
:102EB0001F910F91FF90EF90089500E010E082CFF6
:102EC000E0919101F0E08E179F0709F092CFE09119
:102ED0009001F0E031964E175F0709F08ACF0E940B
:102EE000DE104DE551E060E070E080E090E00E948F
:102EF0008D1586E994E00E94DA1A61E086E994E093
:102F00000E94DD1A8823C9F3809104018F5F81310B
:102F100019F08093040151CF81E0FBCF0E94B515D9
:102F200089CF86E994E00C949C190E941B160C949E
:102F3000D21686E994E00C949D17CF93DF93EC01B1
:102F400083E791E0998388831B821A82CE010E94D5
:102F5000751D8BE691E0998388838CE38E8380E1F5
:102F6000898718861F821E861F86188A198A1A8AE0
:102F7000FE01EC5EFB4F11821082329611821082AC
:102F8000C85EDB4F81E08883DF91CF910895603880
:102F9000710518F54034510500F5E42FE695E695E6
:102FA000E695F0E047705527F695FE2FEE27F7954A
:102FB000E795E60FF71FE80FF91F81E090E0042E78
:102FC00001C0880F0A94EAF7222319F09489982BFC
:102FD00003C0809594899823948B08954496B62FC6
:102FE000B111BFEFFC010024B193B193B193B19340
:102FF0000394D1F7089560E00C94EE172F923F925E
:103000004F925F926F927F928F929F92AF92BF92F8
:10301000CF92DF92EF92FF920F931F93CF93DF93A4
:1030200000D000D01F92CDB7DEB7C982202E312C40
:10303000FB01E20DF31DF7FD13C1603871050CF0C3
:103040000FC1FA01EE0DF11DF7FD0AC14034510523
:103050000CF006C1DA0157FF04C0AA27BB27A41B46
:10306000B50BFD01E770FF27FB83EA83FA0157FDEB
:103070003796DF0113E0B595A7951A95E1F7BD8363
:10308000AC8357FF0CC01197BD83AC8348E050E080
:10309000DA01EA81FB81AE1BBF0BBB83AA834E2DF5
:1030A000469546954695C42ED12C4E2D477019F065
:1030B000FFEFCF1ADF0A49014C815D815695542FED
:1030C000442757954795480F591F2C813D81F8E0BB
:1030D0006F2E712C8A819B81681A790AC901AC8193
:1030E000BD818A1B9B0B8C159D050CF0B9C0283047
:1030F000310509F4B5C02F3F9FEF39070CF4A3C089
:10310000CB0100E010E0DA01A058BF4F2D010215FD
:1031100013050CF098C08038910509F494C097FD10
:103120008EC02F3FBFEF3B0709F494C0D801A80D14
:10313000B91D7A01E80EF91EE981E13071F4FD0153
:10314000A491B0E00A8002C0AA0FBB1F0A94E2F764
:10315000F701B488AB29A48B28C0F981F11114C000
:10316000FD01A491EA2FF0E00A8002C0EE0FFF1FDC
:103170000A94E2F7E095F095D7015496AC905497F5
:10318000B12CEA21FB210FC0FD01A491EA2FF0E050
:103190000A8002C0EE0FFF1F0A94E2F7D70154968F
:1031A000BC905497EB255496EC93AA81BB81AB2B32
:1031B00009F445C02730310509F441C0F801E80D94
:1031C000F91DB981B13089F4E491F0E0062C02C018
:1031D000F595E7950A94E2F77201E80EF91ED7011A
:1031E0005496BC905497EB2928C0B981B11115C0F1
:1031F000E491F0E0062C02C0F595E7950A94E2F719
:10320000E095F0957201E80EF91ED7015496AC9046
:103210005497B12CEA21FB2110C0E491F0E0062C78
:1032200002C0F595E7950A94E2F77201E80EF91EDF
:10323000D7015496BC905497EB255496EC930F5FAE
:103240001F4F019664CF2F5F3F4F820C931C405855
:103250005F4F44CFAA81BB81AB2B09F0AFCFEFCF3B
:103260000F900F900F900F900F90DF91CF911F91C3
:103270000F91FF90EF90DF90CF90BF90AF909F9015
:103280008F907F906F905F904F903F902F90089518
:103290008F929F92AF92BF92CF92EF920F931F9314
:1032A000CF93DF935C01CEEEDFEF18E14C0184E1B8
:1032B000880E911C20E040E0612F6C1BC5010E942C
:1032C000C41DC5010E94FB17CC24C39400E1E02E6D
:1032D00008E526EA38E1AE0164E170E0C5010E942C
:1032E000FE17C4010E94A81D6BE170E080E090E031
:1032F0000E94131FC03F31F46AEF70E080E090E05D
:103300000E94131F2196C931D105A1F66EEE72E01D
:1033100080E090E00E94131F20E040E060E0C501E3
:10332000DF91CF911F910F91EF90CF90BF90AF9011
:103330009F908F900C94C41DCF93DF93EC010E945B
:10334000E51D0E94C91D84FF09C00E94B81D2FEF12
:103350004FEF6FEFCE010E94C41DFFCFCE010E9440
:103360004819249664E1CE010E94B81B65E1CE01A4
:103370000E94B81BDF91CF910C940E1B2F923F92AD
:103380004F925F926F927F928F929F92AF92BF9275
:10339000CF92DF92EF92FF920F931F93CF93DF9321
:1033A000CDB7DEB728970FB6F894DEBF0FBECDBFFE
:1033B0009E838D832A01603871050CF06DC0403406
:1033C00051050CF069C0CB01A5E0CA9E800D911D8E
:1033D0001124181619060CF05FC0EC2DF0E0FC83E8
:1033E000EB83CA01F8E0CF9E800D911D11241816C1
:1033F00019060CF051C0A5E02A9FC00111245B0101
:1034000018861F828A5A964E9A838983BF81B53067
:1034100041F0E981FA818F819885E80FF91F1491B5
:1034200001C010E0320128E0D22E10FF02C0F02EC1
:1034300001C0FE2CF1100BC0E01209C01695DA9401
:10344000AB81BC816A0E7B1ED110EFCF19C0150174
:10345000822D8A198C1590F74301882D86198C15B9
:1034600058F42F2DA401B1018D819E810E94C717B0
:10347000BFEF8B1A9B0AF1CFEFEF2E1A3E0AE8CF6F
:103480008F819885019698878F83AB81BC81AA0E26
:10349000BB1E069709F0BACF28960FB6F894DEBF88
:1034A0000FBECDBFDF91CF911F910F91FF90EF9095
:1034B000DF90CF90BF90AF909F908F907F906F9054
:1034C0005F904F903F902F9008958F929F92AF9270
:1034D000BF92CF92EF920F93CF93DF93EC01262F01
:1034E0006A3099F4FC01E85EFB4F208132978081BD
:1034F000918138E0239F800D911D11249183808359
:10350000CC5EDB4F198218824BC06D3009F448C085
:10351000FC01EA5EFB4F408151815C018CEEA81AF0
:103520008BEFB80AF501608171814E01F8EE8F1AB8
:10353000FBEF9F0AF401C080E12C01E0CE010E9464
:10354000BE19F4012081422F50E0F5018081918164
:10355000F6E02F9F800D911D1124F501918380834A
:10356000359620812223E1F06AEF64039001659F84
:10357000300D112420583F4F281739078CF4E8816B
:10358000F9810190F081E02D6AE0CE01DF91CF91C9
:103590000F91EF90CF90BF90AF909F908F90099434
:1035A000DF91CF910F91EF90CF90BF90AF909F9010
:1035B0008F90089544960C94A81DCF93DF931F928B
:1035C000CDB7DEB769830E94C91D6981982F962304
:1035D00081E0961380E00F90DF91CF910895CF9313
:1035E000DF931F92CDB7DEB769830E94C91D698141
:1035F000682381E009F080E00F90DF91CF9108957A
:10360000E4E6F0E08081877F8083E5E6F0E080817A
:10361000877F808381E08093B00808951092BD0871
:1036200082E090E00E94D02681110C94001B089546
:10363000CF92DF92EF92FF921F93CF93DF939091FF
:10364000BE08891708F065C067FD63C0E82FF0E089
:10365000EA5DF04E1491E62FF0E0603330F4EA506A
:10366000F14EE491CE2FD0E006C0EE0FFF1FEA50DE
:10367000F24EC591D4916E01E12CF12C60E074E220
:1036800084EF90E0A70196010E949726215031090E
:10369000410951092115310581E04807510570F0B4
:1036A00060E970ED83E090E0A70196010E94972603
:1036B000215031094109510993E001C091E01130D5
:1036C000C9F0133031F580919100887F892B809368
:1036D00091003093990020939800D093BC08C09338
:1036E000BB0881E08093BA0880917100826080936A
:1036F00071000FC080918100887F892B80938100A9
:10370000309389002093880080916F0082608093BD
:103710006F00DF91CF911F91FF90EF90DF90CF90DE
:103720000895E82FF0E0EA5DF04EE491E13019F001
:10373000E33069F0089580916F008D7F80936F0072
:103740002091C808E091C908F091CA0808C01092F9
:10375000BA082091C108E091C208F091C3088081A5
:1037600090E030E020953095822393238083089564
:10377000CF93DF93C62F8091BE08823009F46BC0CF
:10378000E82FF0E0EA5DF04ED491A82FB0E0A1540C
:10379000B74F6C938F5F8093BE0861E08C2F0E94BF
:1037A000CE1FD13091F1D33009F055C01092900066
:1037B0001092910080919100886080939100809197
:1037C00091008160809391006C2F70E0FB01EA57BB
:1037D000F04E249130E0220F331F2B55304EF9016B
:1037E000859194919093C3088093C208FB01E95995
:1037F000F04E64916093C1086CE380E00E94181B56
:1038000080E0DF91CF910C94911B10928000109278
:103810008100809181008860809381008091810087
:103820008160809381006C2F70E0FB01EA57F04EBD
:10383000249130E0220F331F2B55304EF901859132
:1038400094919093CA088093C908FB01E959F04EFE
:1038500064916093C808DF91CF910895E091B10819
:10386000F091B208BF016F5F7F4F7093B208609311
:10387000B108A4919A2F907F8A2F8F70903819F4F5
:103880000E94911BEBCF903961F4AF014E5F5F4F07
:103890005093B2084093B108FB0164910E94181B39
:1038A000DDCF903E49F48091B3089091B408909395
:1038B000B2088093B108D2CF903F19F41092BD089E
:1038C000089597FDCBCFAF014E5F5F4F5093B20885
:1038D0004093B108FB016491262F30E03A2BA09170
:1038E000BB08B091BC080E94BC266C507E4F8F4F25
:1038F0009F4F28EE33E040E050E00E947526209371
:10390000B5083093B6084093B7085093B808809133
:10391000B5089091B608A091B708B091B808892B66
:103920008A2B8B2B61F481E090E0A0E0B0E08093E3
:10393000B5089093B608A093B708B093B808089557
:103940008091BA08882349F09091C108E091C2089B
:10395000F091C3088081892780838091BD088823E6
:1039600029F18091B5089091B608A091B708B0915F
:10397000B808892B8A2B8B2BC9F08091B5089091C0
:10398000B608A091B708B091B8080197A109B1098C
:103990008093B5089093B608A093B708B093B80881
:1039A000892B8A2B8B2B11F40C942E1C08951F92BB
:1039B0000F920FB60F9211242F933F938F939F93E3
:1039C000AF93BF93EF93FF938091B908882309F4D5
:1039D0004BC08091C4089091C508A091C608B091D1
:1039E000C708892B8A2B8B2B51F19091C808E09145
:1039F000C908F091CA088081892780838091C40812
:103A00009091C508A091C608B091C708181619066C
:103A10001A061B0694F58091C4089091C508A091E0
:103A2000C608B091C7080197A109B1098093C408DD
:103A30009093C508A093C608B093C7081EC0109203
:103A4000B90880916F008D7F80936F002091C80826
:103A5000E091C908F091CA08808190E030E020959B
:103A600030958223932308C09091C808E091C9083B
:103A7000F091CA08808189278083FF91EF91BF91DF
:103A8000AF919F918F913F912F910F900FBE0F900B
:103A90001F9018951F920F920FB60F9211242F931B
:103AA0003F934F935F936F937F938F939F93AF93C6
:103AB000BF93EF93FF930E94A01CFF91EF91BF91E2
:103AC000AF919F918F917F916F915F914F913F91B6
:103AD0002F910F900FBE0F901F9018958EBD000074
:103AE0000DB407FEFDCF8EB508950895E091CD0881
:103AF000F091CE0880819091CB08892B8083E09152
:103B0000CF08F091D00890818091CC0880958923CE
:103B100080830895E091CF08F091D0088081909142
:103B2000CC08892B8083E091CD08F091CE0890815C
:103B30008091CB08809589238083E091CF08F09114
:103B4000D00890818091CC08809589238083089546
:103B500020E030E0FC014191CF014EBD119C119C51
:103B6000119C2F5F3F4F2115F4E03F0799F708950F
:103B7000CF93DF93C0E0D4E080E00E946E1D2197D8
:103B8000D9F7DF91CF9108952095622F81E10C94B0
:103B9000072083B146B12FB150E040955095407455
:103BA000552794E0559547959A95E1F730E0209593
:103BB0003095207C332756E0359527955A95E1F7C7
:103BC000242B80958077822B0895CF93DF930E94DA
:103BD000701EC5E3DFE1BE01FE01849122966F5F96
:103BE0007F4FFB016491882319F00E94CE1FF3CF11
:103BF00061E08CE00E94072061E070E080E090E0EE
:103C00000E94131F60E08CE00E9407206AE070E0D1
:103C100080E090E00E94131F61E08CE00E9407208A
:103C2000ECE8FFE1E491F0E0EE0FFF1FEB55F04E02
:103C3000859194919093D0088093CF08EDE6FFE1B1
:103C4000E491E093CC08EAE8FFE1E491F0E0EE0FC4
:103C5000FF1FEB55F04E859194919093CE08809381
:103C6000CD08EBE6FFE1E491E093CB088CB58C7FC7
:103C70008CBD8DB581608DBD0E948A1DC8E2DFE1DB
:103C8000FFE1C533DF0731F0FE0184910E946E1D14
:103C90002196F6CF0E94761D0E94C91D803321F423
:103CA0000E94B81D0000FECF809164008160809367
:103CB000640080916400826080936400809164005D
:103CC00080688093640080916400806480936400C5
:103CD00080916500816080936500DF91CF910895A8
:103CE000CF93CFB7F8948091D108811127C0E7E92D
:103CF000FFE18491E8E7FFE19491E82FF0E0EE0F17
:103D0000FF1FED54F04EA591B4918C91892321F4BD
:103D100061E081E10E94072061E081E10E94CE1F05
:103D20008CB580618CBD8CB580648CBD61E08FE00A
:103D30000E94CE1F61E080E10E94CE1F8091D108D9
:103D40008F5F8093D108CFBFCF9108951F920F92BC
:103D50000FB60F9211242F933F938F939F93AF939E
:103D6000BF938091D3089091D408A091D508B091C9
:103D7000D6083091D20823E0230F2D3720F4019686
:103D8000A11DB11D05C026E8230F0296A11DB11D7E
:103D90002093D2088093D3089093D408A093D50899
:103DA000B093D6088091D7089091D808A091D908EF
:103DB000B091DA080196A11DB11D8093D7089093A8
:103DC000D808A093D908B093DA08BF91AF919F911A
:103DD0008F913F912F910F900FBE0F901F901895CC
:103DE0003FB7F8948091D7089091D808A091D9084E
:103DF000B091DA0826B5A89B05C02F3F19F00196AF
:103E0000A11DB11D3FBF6627782F892F9A2F620F02
:103E1000711D811D911D42E0660F771F881F991F3C
:103E20004A95D1F70895CF92DF92EF92FF92CF9308
:103E3000DF936B017C010E94F01EEB01C114D104E1
:103E4000E104F10489F00E947B200E94F01E6C1BAB
:103E50007D0B683E734090F381E0C81AD108E108F9
:103E6000F108C851DC4FEACFDF91CF91FF90EF907E
:103E7000DF90CF900895789484B5826084BD84B536
:103E8000816084BD85B5826085BD85B5816085BD55
:103E9000EEE6F0E0808181608083E1E8F0E010826E
:103EA000808182608083808181608083E0E8F0E0AF
:103EB000808181608083E1E9F0E08081826080839D
:103EC000808181608083E0E9F0E08081816080838F
:103ED000E1ECF0E080818460808380818260808377
:103EE000808181608083E3ECF0E080818160808369
:103EF000E0ECF0E0808182608083E2ECF0E08081A1
:103F000081608083EAE7F0E0808184608083808143
:103F100082608083808181608083808180688083EB
:103F2000089590E0FC013197EF30F105B0F5EA5AC1
:103F3000FF4F0C94B626809180008F7703C080914C
:103F400080008F7D80938000089580918000877F1E
:103F5000F9CF84B58F7702C084B58F7D84BD089575
:103F6000809190008F7707C0809190008F7D03C073
:103F700080919000877F8093900008958091C00089
:103F80008F7703C08091C0008F7D8093C00008951B
:103F90008091C200877F8093C2000895CF93DF9302
:103FA00090E0FC01E959F04E2491FC01EA57F04EF3
:103FB0008491882349F190E0880F991FFC01ED540A
:103FC000F04EA591B4918B55904EFC01C591D491C2
:103FD0009FB7611108C0F8948C91209582238C932F
:103FE000888182230AC0623051F4F8948C91322F78
:103FF000309583238C938881822B888304C0F89426
:104000008C91822B8C939FBFDF91CF9108950F935A
:104010001F93CF93DF931F92CDB7DEB7282F30E0E9
:10402000F901E85BF04E8491F901E959F04E1491E1
:10403000F901EA57F04E04910023C9F0882321F0DA
:1040400069830E94911F6981E02FF0E0EE0FFF1F4E
:10405000EB55F04EA591B4919FB7F8948C916111F6
:1040600003C01095812301C0812B8C939FBF0F90BB
:10407000DF91CF911F910F910895CF92DF92EF9230
:10408000FF920F931F93CF93DF937C016A01EB01A3
:1040900000E010E00C151D0571F06991D701ED915C
:1040A000FC910190F081E02DC7010995892B19F051
:1040B0000F5F1F4FEFCFC801DF91CF911F910F917D
:1040C000FF90EF90DF90CF9008950E94CB26089547
:1040D0000E943B1F0E9467208BED98E00E94952470
:1040E0000E949117C0E0D0E00E9495172097E1F35D
:1040F0000E940000F9CF0895615030F02091F10046
:10410000FC0120830196F8CF289884E68093E40888
:1041100008954091DF085091E0082091DD0830912A
:10412000DE0842175307B4F49091E8009570E1F36C
:104130009091E80092FD19C08093F1008091DF0812
:104140009091E00801968F739927892B19F48EEFCF
:104150008093E8008091DF089091E00801969093A9
:10416000E0088093DF0881E0089580E00895CF9211
:10417000DF92EF92FF920F931F93CF93DF931F92E3
:10418000CDB7DEB7082F162FF42E862F880F8E5F3F
:1041900099830E94892083E00E948920E02EC02E0E
:1041A0009981D92E8C2D8E19811798F4F601F7FE7E
:1041B00002C0849101C080810E948920082F80E084
:1041C0000E9489208023FFEFCF1ADF0A8111EACFF6
:1041D00001C081E00F90DF91CF911F910F91FF906F
:1041E000EF90DF90CF9008958091D7008160809309
:1041F000D70080EA8093D80089B5806189BD89B5F0
:10420000826089BD09B400FEFDCF61E070E080E00E
:1042100090E00E94131F8091D8008F7C8061809372
:10422000D8008091E000807F8093E0000895CF93D4
:10423000DF931F92CDB7DEB71982CE0101960E949F
:1042400005250E942D26BE016F5F7F4F0E94A62587
:1042500089810F90DF91CF9108952FB7FC012083C2
:10426000F89467706093E9000895CF93DF931F92ED
:10427000CDB7DEB7682FCE0101960E942D21809127
:10428000F20099819FBF0F90DF91CF910895FF9227
:104290000F931F93CF93DF9300D0CDB7DEB7F62EE9
:1042A0008A019091E308992311F057FF03C08FEF23
:1042B0009FEF2BC0682FCE0101967A830E942D219B
:1042C0008091F20090E0A8017A81801791070CF4A8
:1042D000AC01EF2DF72FF40E84E6FE1639F0289886
:1042E0008093E4089091F1009193F7CF4115510527
:1042F00021F08091F200882321F089818FBFCA01CB
:1043000004C08BE68093E800F8CF0F900F90DF9108
:10431000CF911F910F91FF900895CF93DF931F923C
:10432000CDB7DEB741E050E0BE016F5F7F4F0E9426
:104330004721019719F4898190E002C08FEF9FEF28
:104340000F90DF91CF910895CF93DF931F92CDB758
:10435000DEB7682FCE0101960E942D219091E800D2
:10436000892F807295FF04C09091F20080E4891B30
:1043700099819FBF0F90DF91CF9108956F927F92A7
:104380008F929F92AF92BF92CF92DF92EF92FF9265
:104390000F931F93CF93DF931F92CDB7DEB7782E85
:1043A0007B01C42EB52E8091E308882369F0042F89
:1043B000152F8AEFD82E872D8072982E9AE3A92E7A
:1043C000872D8074882E11C08FEF9FEF57C0872DE7
:1043D0000E94A421682E81110CC0DA94A9F361E037
:1043E00070E080E090E00E94131F0115110579F73D
:1043F0003BC0282F30E0021713070CF4602E672D06
:10440000CE0101960E942D218091E80085FF29C0F0
:10441000262D30E0021B130B992039F06A948FEFA0
:104420006816B1F01092F100F9CFF701862D77FEF2
:1044300007C0815058F094919093F1003196F9CFD4
:10444000815020F091919093F100FACFE20EF31E8B
:104450008091E80085FF0FC00115110511F481104E
:104460000AC089818FBFC1CF5D9884E68093E5083B
:104470008C2D9B2D03C0A092E800F3CF0F90DF910D
:10448000CF911F910F91FF90EF90DF90CF90BF9051
:10449000AF909F908F907F906F9008951092E90059
:1044A0001092E0081092DF089093DE088093DD08F8
:1044B0000895CF92DF92FF920F931F93CF93DF93D4
:1044C00000D0CDB7DEB7F82E8A016B0101151105BA
:1044D000B1F0F601F7FE02C0849101C080814983EA
:1044E0005A830E94892001501109FFEFCF1ADF0A79
:1044F00049815A818111EACF8FEF9FEF01C0CA0134
:104500000F900F90DF91CF911F910F91FF90DF904F
:10451000CF9008951F93CF93DF931F92CDB7DEB74F
:10452000162F2091E80022FFFCCF612F79830E9493
:104530007C208BEF8093E800812F7981972F0F905B
:10454000DF91CF911F9108951F920F920FB60F9296
:104550001124DF92EF92FF920F931F932F933F93BB
:104560004F935F936F937F938F939F93AF93BF937B
:10457000EF93FF93CF93DF93CDB7DEB76C97DEBF9A
:10458000CDBF1092E9008091E80083FF23C168E06D
:10459000CE0145960E947C2082EF8093E8003D8901
:1045A00037FF05C08091E80080FFFCCF03C08EEF8D
:1045B0008093E800832F807609F0F0C02E894F8920
:1045C000D88C21110CC0303829F48091E2088093F6
:1045D000F10002C01092F1001092F100F4C0842F9B
:1045E00090E09D29213049F43111EDC0019709F087
:1045F000EAC08091E2088D7F0AC0233059F431115E
:10460000E2C0019709F0DFC08091E20882608093E8
:10461000E208D9C0253041F48091E80080FFFCCF4A
:1046200040684093E300CFC0263009F08DC0EB8C8A
:10463000FC8C22E0D2122CC080E090E00E944E223E
:104640000E94172199E08E010F5F1F4FF801292F5B
:1046500011922A95E9F79983DA8291E09E8390EA94
:1046600098879AEF99872091DF083091E008275FBB
:104670003F4F3C832B838D83C7010E944E2249E02C
:1046800050E0B80180E00E9459220E9417219BC08F
:10469000C7010E944E220E942D26BE016B5E7F4FF5
:1046A0000E94CF25009719F00CF08DC090C081E0DA
:1046B000D8120EC08B8D9C8D089719F481E08093E1
:1046C000DC088091DC0881112FC063ED7FE131C0EF
:1046D000E3E0DE127CC08F89882349F1823029F41F
:1046E00040E860E181EF9FE11CC0813029F440E89F
:1046F0006BE085EE9FE115C0833009F068C00E9431
:104700002D268E010F5F1F4FB8010E94EE25F80184
:1047100001900020E9F73197E01BF10B40E06E2F8C
:10472000C8010E94B7204DC061EC7FE102C062E089
:1047300070E26115710509F44AC0FB01449150E033
:1047400080E80E9459223FC0273009F440C0283039
:1047500021F481E08093F10036C02930A1F5337057
:10476000B1F5E6E0F1E081E021E036E390819923C4
:1047700061F08093E9002093EB0091919093EC001D
:104780003093ED008F5F873089F78EE78093EA00E2
:104790001092EA008F898093E30815C08B8D9C8D61
:1047A0000E944E22898D811105C0CE0145960E943E
:1047B000102507C00E942D26BE016B5E7F4F0E9410
:1047C0000D26882321F08EEF8093E80003C081E25C
:1047D0008093EB006C960FB6F894DEBF0FBECDBF92
:1047E000DF91CF91FF91EF91BF91AF919F918F9109
:1047F0007F916F915F914F913F912F911F910F91F9
:10480000FF90EF90DF900F900FBE0F901F901895C4
:104810008093E9008091F200882319F08AE3809365
:10482000E80008951F920F920FB60F9211242F9354
:104830003F934F935F936F937F938F939F93AF9328
:10484000BF93CF93EF93FF93C091E1008091E1007C
:10485000837F8093E1008093E100C3FF0FC010923B
:10486000E90081E08093EB001092EC0082E38093FA
:10487000ED001092E30888E08093F000C2FF19C0B9
:1048800083E00E9408248091E508882339F0809114
:10489000E50881508093E508882389F18091E40838
:1048A000882339F08091E40881508093E4088823BC
:1048B00041F1C4FF10C08091E2008E7E8160809340
:1048C000E2008091E1008F7E8093E1008091E10819
:1048D0008E7E806111C0C0FF16C08091E2008E7E86
:1048E00080618093E2008091E1008E7E8093E10000
:1048F0008091E1088E7E81608093E10804C05D9A1A
:10490000CDCF289AD6CFFF91EF91CF91BF91AF91A4
:104910009F918F917F916F915F914F913F912F91D7
:104920000F900FBE0F901F9018951092E3081092F1
:10493000E2081092E1080E94F420E1EEF0E08081AC
:104940008E7E80838DE08093E200559A209A0895B0
:10495000CF93DF931F92CDB7DEB76983DC01ED9172
:10496000FC910280F381E02D41E050E0BE016F5FD9
:104970007F4F09950F90DF91CF910895CF93DF93EB
:10498000EC018C859D8597FF05C082E00E948D21FA
:104990009D878C878C859D85DF91CF91089583E0DD
:1049A0000C940824FC018485958597FD06C082E05F
:1049B0000E94352190E00196089582E00E94352101
:1049C00090E00895FC018485958597FD05C02FEF43
:1049D0003FEF35872487089582E00C948D21CF9393
:1049E000DF93EC0180911701882331F083E00E946E
:1049F000BE211816190634F081E090E09B838A836B
:104A000080E090E0DF91CF910895FC0120812E5F3E
:104A1000208342E450E066E070E280E80C94592282
:104A2000FC0121818081813A59F4213209F05CC076
:104A300047E050E060E171E080E00E94592267C0E9
:104A4000813209F051C0233289F4838190E0982F9C
:104A500088273281832BA0E0B0E080930C019093F3
:104A60000D01A0930E01B0930F010FC0203239F455
:104A700067E070E080E191E00E948A220AC0223261
:104A800021F482818093170104C02D7F203209F028
:104A90003EC08091100190911101A0911201B0913E
:104AA0001301803B9440A105B10501F580911701E8
:104AB00080FD1CC080910008909101089093FF0A2E
:104AC0008093FE0A87E797E7909301088093000898
:104AD0002BE088E190E00FB6F894A89580936000F1
:104AE0000FBE2093600013C080E0089588E10FB6E8
:104AF000F89480936000109260000FBEA89580919A
:104B0000FE0A9091FF0A909301088093000881E0CB
:104B100008951092E9081092E80888EE93E0A0E06A
:104B2000B0E08093EA089093EB08A093EC08B09370
:104B3000ED088BE791E09093E7088093E6088FEF0C
:104B40009FEF9093F3088093F2080895EF92FF92FD
:104B50000F931F93CF93DF937B01FC01C281D3811D
:104B600000E010E0209781F0E881F9810280F38174
:104B7000E02DB701CE01099597FD08C0080F191F58
:104B80000884D985C02DEECFC80102C08FEF9FEFFA
:104B9000DF91CF911F910F91FF90EF9008950F93A8
:104BA0001F93CF93DF938B01FC01C281D3812097A8
:104BB00071F0E881F9810480F581E02DB801CE0122
:104BC0000995009731F40884D985C02DF0CF80E095
:104BD00090E0DF91CF911F910F9108950F931F9354
:104BE000CF93DF938B01FC01C281D381209771F0B9
:104BF000E881F9810680F781E02DB801CE010995A1
:104C0000080F111D0884D985C02DF0CFF80110823E
:104C1000DF91CF911F910F9108950F931F93CF9321
:104C2000DF938B01FC01C281D381209771F0E88171
:104C3000F9810190F081E02DB801CE010995811133
:104C400006C00884D985C02DF0CF80E001C081E086
:104C5000DF91CF911F910F91089580913A098111B1
:104C60000DC082E08093360984E08093370910926A
:104C700039091092380981E080933A0986E399E076
:104C80000895991B79E004C0991F961708F0961BA8
:104C9000881F7A95C9F780950895AA1BBB1B51E11F
:104CA00007C0AA1FBB1FA617B70710F0A61BB70B9C
:104CB000881F991F5A95A9F780959095BC01CD0141
:104CC000089597FB072E16F4009407D077FD09D0BE
:104CD0000E944D2607FC05D03EF4909581959F4F8C
:104CE0000895709561957F4F0895A1E21A2EAA1B31
:104CF000BB1BFD010DC0AA1FBB1FEE1FFF1FA2178C
:104D0000B307E407F50720F0A21BB30BE40BF50B88
:104D1000661F771F881F991F1A9469F76095709511
:104D2000809590959B01AC01BD01CF010895052EA2
:104D300097FB1EF400940E94AE2657FD07D00E94F8
:104D4000752607FC03D04EF40C94AE265095409582
:104D5000309521953F4F4F4F5F4F08959095809527
:104D6000709561957F4F8F4F9F4F0895EE0FFF1FF6
:104D70000590F491E02D0994A29FB001B39FC0016A
:104D8000A39F700D811D1124911DB29F700D811D77
:104D90001124911D089581E090E0F8940C94E6268A
:104DA000F999FECF92BD81BDF89A992780B50895F3
:104DB000262FF999FECF1FBA92BD81BD20BD0FB637
:104DC000F894FA9AF99A0FBE01960895F894FFCFD5
:104DD000010000000100C18081000000FFFFFFFF13
:104DE00000E1000000000000534156494E472E2EBE
:104DF0002E2E2E2E2E00536176656420746F206C4B
:104E00006576656C20302E00204C6576656C3A2006
:104E100000486F6C642D413D5175697400413D52ED
:104E20006F7461746500423D507573680020536F64
:104E30006C76656421200000000000651A3D2000AA
:104E400000000065203D2000000000A824EF24D2CF
:084E500024E224BE24CF24005B
:00000001FF
